{
  "contractName": "AgriSCM",
  "abi": [
    {
      "inputs": [],
      "payable": false,
      "stateMutability": "nonpayable",
      "type": "constructor",
      "signature": "constructor"
    },
    {
      "constant": false,
      "inputs": [
        {
          "name": "dateCreate",
          "type": "string"
        },
        {
          "name": "description",
          "type": "string"
        },
        {
          "name": "previousBarcode",
          "type": "string"
        },
        {
          "name": "publicBarcode",
          "type": "string"
        }
      ],
      "name": "storeTraceData",
      "outputs": [
        {
          "name": "success",
          "type": "bool"
        }
      ],
      "payable": false,
      "stateMutability": "nonpayable",
      "type": "function",
      "signature": "0x914b5e46"
    },
    {
      "constant": true,
      "inputs": [
        {
          "name": "publicBarcode",
          "type": "string"
        },
        {
          "name": "newOwner",
          "type": "address"
        }
      ],
      "name": "transfer",
      "outputs": [
        {
          "name": "success",
          "type": "bool"
        }
      ],
      "payable": false,
      "stateMutability": "view",
      "type": "function",
      "signature": "0xfbf58b3e"
    },
    {
      "constant": false,
      "inputs": [
        {
          "name": "addr",
          "type": "address"
        },
        {
          "name": "partnerid",
          "type": "string"
        },
        {
          "name": "GLN",
          "type": "string"
        },
        {
          "name": "name",
          "type": "string"
        },
        {
          "name": "partnerAddress",
          "type": "string"
        },
        {
          "name": "proof",
          "type": "string"
        },
        {
          "name": "typeOfPartner",
          "type": "string"
        }
      ],
      "name": "addPartner",
      "outputs": [
        {
          "name": "success",
          "type": "bool"
        }
      ],
      "payable": false,
      "stateMutability": "nonpayable",
      "type": "function",
      "signature": "0xfd6848a1"
    },
    {
      "constant": true,
      "inputs": [
        {
          "name": "addr",
          "type": "address"
        }
      ],
      "name": "getPartner",
      "outputs": [
        {
          "name": "GLN",
          "type": "string"
        },
        {
          "name": "name",
          "type": "string"
        },
        {
          "name": "partnerAddress",
          "type": "string"
        },
        {
          "name": "proof",
          "type": "string"
        },
        {
          "name": "typeOfPartner",
          "type": "string"
        }
      ],
      "payable": false,
      "stateMutability": "view",
      "type": "function",
      "signature": "0xd50f6d3a"
    },
    {
      "constant": false,
      "inputs": [],
      "name": "getContractOwner",
      "outputs": [
        {
          "name": "owner",
          "type": "address"
        }
      ],
      "payable": false,
      "stateMutability": "nonpayable",
      "type": "function",
      "signature": "0x442890d5"
    },
    {
      "constant": true,
      "inputs": [],
      "name": "isOwner",
      "outputs": [
        {
          "name": "result",
          "type": "bool"
        }
      ],
      "payable": false,
      "stateMutability": "view",
      "type": "function",
      "signature": "0x8f32d59b"
    },
    {
      "constant": true,
      "inputs": [
        {
          "name": "publicBarcode",
          "type": "string"
        }
      ],
      "name": "getTraceData",
      "outputs": [
        {
          "name": "owner",
          "type": "address"
        },
        {
          "name": "dateCreate",
          "type": "string"
        },
        {
          "name": "description",
          "type": "string"
        },
        {
          "name": "previousBarcode",
          "type": "string"
        }
      ],
      "payable": false,
      "stateMutability": "view",
      "type": "function",
      "signature": "0x6c0c378d"
    },
    {
      "constant": false,
      "inputs": [
        {
          "name": "publicBarcode",
          "type": "string"
        }
      ],
      "name": "getdateCreate",
      "outputs": [
        {
          "name": "dateCreate",
          "type": "string"
        }
      ],
      "payable": false,
      "stateMutability": "nonpayable",
      "type": "function",
      "signature": "0x9cb6ca78"
    },
    {
      "constant": true,
      "inputs": [
        {
          "name": "publicBarcode",
          "type": "string"
        }
      ],
      "name": "getPreviousBarcode",
      "outputs": [
        {
          "name": "previousBarcode",
          "type": "string"
        }
      ],
      "payable": false,
      "stateMutability": "view",
      "type": "function",
      "signature": "0x44c6a555"
    },
    {
      "constant": true,
      "inputs": [
        {
          "name": "publicBarcode",
          "type": "string"
        }
      ],
      "name": "getOwner",
      "outputs": [
        {
          "name": "owner",
          "type": "address"
        }
      ],
      "payable": false,
      "stateMutability": "view",
      "type": "function",
      "signature": "0x4aaf4a12"
    },
    {
      "constant": true,
      "inputs": [
        {
          "name": "publicBarcode",
          "type": "string"
        }
      ],
      "name": "getdDescription",
      "outputs": [
        {
          "name": "description",
          "type": "string"
        }
      ],
      "payable": false,
      "stateMutability": "view",
      "type": "function",
      "signature": "0x8adbbe65"
    }
  ],
  "bytecode": "0x608060405234801561001057600080fd5b5033600360006101000a81548173ffffffffffffffffffffffffffffffffffffffff021916908373ffffffffffffffffffffffffffffffffffffffff160217905550611d29806100616000396000f3006080604052600436106100af576000357c0100000000000000000000000000000000000000000000000000000000900463ffffffff168063442890d5146100b457806344c6a5551461010b5780634aaf4a12146101ed5780636c0c378d146102965780638adbbe65146104835780638f32d59b14610565578063914b5e46146105945780639cb6ca78146106e7578063d50f6d3a146107c9578063fbf58b3e14610a35578063fd6848a114610ad6575b600080fd5b3480156100c057600080fd5b506100c9610cd5565b604051808273ffffffffffffffffffffffffffffffffffffffff1673ffffffffffffffffffffffffffffffffffffffff16815260200191505060405180910390f35b34801561011757600080fd5b50610172600480360381019080803590602001908201803590602001908080601f0160208091040260200160405190810160405280939291908181526020018383808284378201915050505050509192919290505050610cff565b6040518080602001828103825283818151815260200191508051906020019080838360005b838110156101b2578082015181840152602081019050610197565b50505050905090810190601f1680156101df5780820380516001836020036101000a031916815260200191505b509250505060405180910390f35b3480156101f957600080fd5b50610254600480360381019080803590602001908201803590602001908080601f0160208091040260200160405190810160405280939291908181526020018383808284378201915050505050509192919290505050610d29565b604051808273ffffffffffffffffffffffffffffffffffffffff1673ffffffffffffffffffffffffffffffffffffffff16815260200191505060405180910390f35b3480156102a257600080fd5b506102fd600480360381019080803590602001908201803590602001908080601f0160208091040260200160405190810160405280939291908181526020018383808284378201915050505050509192919290505050610d53565b604051808573ffffffffffffffffffffffffffffffffffffffff1673ffffffffffffffffffffffffffffffffffffffff168152602001806020018060200180602001848103845287818151815260200191508051906020019080838360005b8381101561037757808201518184015260208101905061035c565b50505050905090810190601f1680156103a45780820380516001836020036101000a031916815260200191505b50848103835286818151815260200191508051906020019080838360005b838110156103dd5780820151818401526020810190506103c2565b50505050905090810190601f16801561040a5780820380516001836020036101000a031916815260200191505b50848103825285818151815260200191508051906020019080838360005b83811015610443578082015181840152602081019050610428565b50505050905090810190601f1680156104705780820380516001836020036101000a031916815260200191505b5097505050505050505060405180910390f35b34801561048f57600080fd5b506104ea600480360381019080803590602001908201803590602001908080601f0160208091040260200160405190810160405280939291908181526020018383808284378201915050505050509192919290505050610dc0565b6040518080602001828103825283818151815260200191508051906020019080838360005b8381101561052a57808201518184015260208101905061050f565b50505050905090810190601f1680156105575780820380516001836020036101000a031916815260200191505b509250505060405180910390f35b34801561057157600080fd5b5061057a610dea565b604051808215151515815260200191505060405180910390f35b3480156105a057600080fd5b506106cd600480360381019080803590602001908201803590602001908080601f0160208091040260200160405190810160405280939291908181526020018383808284378201915050505050509192919290803590602001908201803590602001908080601f0160208091040260200160405190810160405280939291908181526020018383808284378201915050505050509192919290803590602001908201803590602001908080601f0160208091040260200160405190810160405280939291908181526020018383808284378201915050505050509192919290803590602001908201803590602001908080601f0160208091040260200160405190810160405280939291908181526020018383808284378201915050505050509192919290505050610e42565b604051808215151515815260200191505060405180910390f35b3480156106f357600080fd5b5061074e600480360381019080803590602001908201803590602001908080601f0160208091040260200160405190810160405280939291908181526020018383808284378201915050505050509192919290505050610fcf565b6040518080602001828103825283818151815260200191508051906020019080838360005b8381101561078e578082015181840152602081019050610773565b50505050905090810190601f1680156107bb5780820380516001836020036101000a031916815260200191505b509250505060405180910390f35b3480156107d557600080fd5b5061080a600480360381019080803573ffffffffffffffffffffffffffffffffffffffff169060200190929190505050610ff9565b60405180806020018060200180602001806020018060200186810386528b818151815260200191508051906020019080838360005b8381101561085a57808201518184015260208101905061083f565b50505050905090810190601f1680156108875780820380516001836020036101000a031916815260200191505b5086810385528a818151815260200191508051906020019080838360005b838110156108c05780820151818401526020810190506108a5565b50505050905090810190601f1680156108ed5780820380516001836020036101000a031916815260200191505b50868103845289818151815260200191508051906020019080838360005b8381101561092657808201518184015260208101905061090b565b50505050905090810190601f1680156109535780820380516001836020036101000a031916815260200191505b50868103835288818151815260200191508051906020019080838360005b8381101561098c578082015181840152602081019050610971565b50505050905090810190601f1680156109b95780820380516001836020036101000a031916815260200191505b50868103825287818151815260200191508051906020019080838360005b838110156109f25780820151818401526020810190506109d7565b50505050905090810190601f168015610a1f5780820380516001836020036101000a031916815260200191505b509a505050505050505050505060405180910390f35b348015610a4157600080fd5b50610abc600480360381019080803590602001908201803590602001908080601f0160208091040260200160405190810160405280939291908181526020018383808284378201915050505050509192919290803573ffffffffffffffffffffffffffffffffffffffff1690602001909291905050506114a5565b604051808215151515815260200191505060405180910390f35b348015610ae257600080fd5b50610cbb600480360381019080803573ffffffffffffffffffffffffffffffffffffffff169060200190929190803590602001908201803590602001908080601f0160208091040260200160405190810160405280939291908181526020018383808284378201915050505050509192919290803590602001908201803590602001908080601f0160208091040260200160405190810160405280939291908181526020018383808284378201915050505050509192919290803590602001908201803590602001908080601f0160208091040260200160405190810160405280939291908181526020018383808284378201915050505050509192919290803590602001908201803590602001908080601f0160208091040260200160405190810160405280939291908181526020018383808284378201915050505050509192919290803590602001908201803590602001908080601f0160208091040260200160405190810160405280939291908181526020018383808284378201915050505050509192919290803590602001908201803590602001908080601f01602080910402602001604051908101604052809392919081815260200183838082843782019150505050505091929192905050506115d6565b604051808215151515815260200191505060405180910390f35b6000600360009054906101000a900473ffffffffffffffffffffffffffffffffffffffff16905090565b6060610d0a8261177b565b15610d2357610d1882611842565b606001519050610d24565b5b919050565b6000610d348261177b565b15610d4d57610d4282611842565b600001519050610d4e565b5b919050565b600060608060606000606080606080610d6a611bbe565b610d738b61177b565b15610da757610d818b611842565b905080600001519550806020015194508060400151935080606001519250806080015191505b8585858599509950995099505050505050509193509193565b6060610dcb8261177b565b15610de457610dd982611842565b604001519050610de5565b5b919050565b6000600360009054906101000a900473ffffffffffffffffffffffffffffffffffffffff1673ffffffffffffffffffffffffffffffffffffffff163373ffffffffffffffffffffffffffffffffffffffff1614905090565b6000610e4d8261177b565b15610e5b5760009050610fc7565b60a0604051908101604052803373ffffffffffffffffffffffffffffffffffffffff168152602001868152602001858152602001848152602001838152506000836040518082805190602001908083835b602083101515610ed15780518252602082019150602081019050602083039250610eac565b6001836020036101000a038019825116818451168082178552505050505050905001915050908152602001604051809103902060008201518160000160006101000a81548173ffffffffffffffffffffffffffffffffffffffff021916908373ffffffffffffffffffffffffffffffffffffffff1602179055506020820151816001019080519060200190610f67929190611c04565b506040820151816002019080519060200190610f84929190611c04565b506060820151816003019080519060200190610fa1929190611c04565b506080820151816004019080519060200190610fbe929190611c04565b50905050600190505b949350505050565b6060610fda8261177b565b15610ff357610fe882611842565b602001519050610ff4565b5b919050565b6060806060806060611009611c84565b600260008873ffffffffffffffffffffffffffffffffffffffff1673ffffffffffffffffffffffffffffffffffffffff16815260200190815260200160002060e060405190810160405290816000820160009054906101000a900473ffffffffffffffffffffffffffffffffffffffff1673ffffffffffffffffffffffffffffffffffffffff1673ffffffffffffffffffffffffffffffffffffffff168152602001600182018054600181600116156101000203166002900480601f0160208091040260200160405190810160405280929190818152602001828054600181600116156101000203166002900480156111435780601f1061111857610100808354040283529160200191611143565b820191906000526020600020905b81548152906001019060200180831161112657829003601f168201915b50505050508152602001600282018054600181600116156101000203166002900480601f0160208091040260200160405190810160405280929190818152602001828054600181600116156101000203166002900480156111e55780601f106111ba576101008083540402835291602001916111e5565b820191906000526020600020905b8154815290600101906020018083116111c857829003601f168201915b50505050508152602001600382018054600181600116156101000203166002900480601f0160208091040260200160405190810160405280929190818152602001828054600181600116156101000203166002900480156112875780601f1061125c57610100808354040283529160200191611287565b820191906000526020600020905b81548152906001019060200180831161126a57829003601f168201915b50505050508152602001600482018054600181600116156101000203166002900480601f0160208091040260200160405190810160405280929190818152602001828054600181600116156101000203166002900480156113295780601f106112fe57610100808354040283529160200191611329565b820191906000526020600020905b81548152906001019060200180831161130c57829003601f168201915b50505050508152602001600582018054600181600116156101000203166002900480601f0160208091040260200160405190810160405280929190818152602001828054600181600116156101000203166002900480156113cb5780601f106113a0576101008083540402835291602001916113cb565b820191906000526020600020905b8154815290600101906020018083116113ae57829003601f168201915b50505050508152602001600682018054600181600116156101000203166002900480601f01602080910402602001604051908101604052809291908181526020018280546001816001161561010002031660029004801561146d5780601f106114425761010080835404028352916020019161146d565b820191906000526020600020905b81548152906001019060200180831161145057829003601f168201915b50505050508152505090508060400151955080606001519450806080015193508060a0015192508060c0015191505091939590929450565b60006114af611bbe565b6114b88461177b565b156115ca576114c684611842565b9050806000015173ffffffffffffffffffffffffffffffffffffffff163373ffffffffffffffffffffffffffffffffffffffff1614156115c157600180856040518082805190602001908083835b6020831015156115395780518252602082019150602081019050602083039250611514565b6001836020036101000a038019825116818451168082178552505050505050905001915050908152602001604051809103902060008573ffffffffffffffffffffffffffffffffffffffff1673ffffffffffffffffffffffffffffffffffffffff16815260200190815260200160002060006101000a81548160ff0219169083151502179055505b600191506115cf565b600091505b5092915050565b60006115e0610dea565b15156115eb57600080fd5b60e0604051908101604052803373ffffffffffffffffffffffffffffffffffffffff16815260200188815260200187815260200186815260200185815260200184815260200183815250600260008a73ffffffffffffffffffffffffffffffffffffffff1673ffffffffffffffffffffffffffffffffffffffff16815260200190815260200160002060008201518160000160006101000a81548173ffffffffffffffffffffffffffffffffffffffff021916908373ffffffffffffffffffffffffffffffffffffffff16021790555060208201518160010190805190602001906116d7929190611c04565b5060408201518160020190805190602001906116f4929190611c04565b506060820151816003019080519060200190611711929190611c04565b50608082015181600401908051906020019061172e929190611c04565b5060a082015181600501908051906020019061174b929190611c04565b5060c0820151816006019080519060200190611768929190611c04565b5090505060019050979650505050505050565b60008073ffffffffffffffffffffffffffffffffffffffff166000836040518082805190602001908083835b6020831015156117cc57805182526020820191506020810190506020830392506117a7565b6001836020036101000a038019825116818451168082178552505050505050905001915050908152602001604051809103902060000160009054906101000a900473ffffffffffffffffffffffffffffffffffffffff1673ffffffffffffffffffffffffffffffffffffffff1614159050919050565b61184a611bbe565b6118538261177b565b15611bb4576000826040518082805190602001908083835b602083101515611890578051825260208201915060208101905060208303925061186b565b6001836020036101000a038019825116818451168082178552505050505050905001915050908152602001604051809103902060a060405190810160405290816000820160009054906101000a900473ffffffffffffffffffffffffffffffffffffffff1673ffffffffffffffffffffffffffffffffffffffff1673ffffffffffffffffffffffffffffffffffffffff168152602001600182018054600181600116156101000203166002900480601f0160208091040260200160405190810160405280929190818152602001828054600181600116156101000203166002900480156119be5780601f10611993576101008083540402835291602001916119be565b820191906000526020600020905b8154815290600101906020018083116119a157829003601f168201915b50505050508152602001600282018054600181600116156101000203166002900480601f016020809104026020016040519081016040528092919081815260200182805460018160011615610100020316600290048015611a605780601f10611a3557610100808354040283529160200191611a60565b820191906000526020600020905b815481529060010190602001808311611a4357829003601f168201915b50505050508152602001600382018054600181600116156101000203166002900480601f016020809104026020016040519081016040528092919081815260200182805460018160011615610100020316600290048015611b025780601f10611ad757610100808354040283529160200191611b02565b820191906000526020600020905b815481529060010190602001808311611ae557829003601f168201915b50505050508152602001600482018054600181600116156101000203166002900480601f016020809104026020016040519081016040528092919081815260200182805460018160011615610100020316600290048015611ba45780601f10611b7957610100808354040283529160200191611ba4565b820191906000526020600020905b815481529060010190602001808311611b8757829003601f168201915b5050505050815250509050611bb9565b600080fd5b919050565b60a060405190810160405280600073ffffffffffffffffffffffffffffffffffffffff168152602001606081526020016060815260200160608152602001606081525090565b828054600181600116156101000203166002900490600052602060002090601f016020900481019282601f10611c4557805160ff1916838001178555611c73565b82800160010185558215611c73579182015b82811115611c72578251825591602001919060010190611c57565b5b509050611c809190611cd8565b5090565b60e060405190810160405280600073ffffffffffffffffffffffffffffffffffffffff1681526020016060815260200160608152602001606081526020016060815260200160608152602001606081525090565b611cfa91905b80821115611cf6576000816000905550600101611cde565b5090565b905600a165627a7a723058207a1bf19407709776f2f44c2f086237e8625a23a23a43a5863c7a0c0d4e318d050029",
  "source": "/*\n* previous partner must be transfer the proof to the next partner of the chain\n* this make sure that exactly the next partner received goods\n* and no one can access the barcode of  prev partner to add any data.\n*/\n\npragma solidity ^0.4.25;\n\ncontract AgriSCM {\n    struct TraceData {\n        address owner;\n        string dateCreate;\n        string description;\n        string previousBarcode;\n        string publicBarcode;\n    }\n  \n    struct Partner{\n        address addr;\n        string partnerid;\n        string GLN;\n        string name;\n        string partnerAddress;\n        string proof;\n        string typeOfPartner;\n    }\n    \n    // map of tracing barcode \n    mapping (string =>TraceData) private traceDatas;\n\n    // map of trackingId to addresses to check if a trackingId can be use as a previousTrackingId \n    mapping (string => mapping (address => bool )) private isTransfered;\n      \n    // map of partners on the supply chain\n    mapping (address => Partner) partners;\n    \n    // address of smart contract owner\n    address _owner;\n    \n    // event storeTraceDataCompleted(\n    //     address from,\n    //     string publicBarcode,\n    //     string previousBarcode\n    // );\n\n    // event TransferCompleted(\n    //     address from,\n    //     address to,\n    //     string publicBarcode\n    // );\n    \n    // event addPartnerCompleted(\n    //     string name,\n    //     string proof\n    // );\n    \n    constructor() public {\n        _owner = msg.sender;\n    }\n\n    // add a proof to an existing tracking - requires that\n    // the previousOwner transfered the ownership \n    function storeTraceData(string memory dateCreate,\n        string memory description,\n        string memory previousBarcode,\n        string memory publicBarcode) public returns(bool success){\n    \n        // if we don't already have this tracingId\n        if (hasAdded(publicBarcode)) {\n        // already exists- return\n            return false;\n        }\n\n        traceDatas[publicBarcode] = TraceData(msg.sender, dateCreate, \n                                        description, previousBarcode, publicBarcode);\n        //emit storeTraceDataCompleted(msg.sender, publicBarcode, previousBarcode);\n        return true;\n    }\n\n    function transfer(string memory publicBarcode, address newOwner) public view returns(bool success) {\n    \n        if (hasAdded(publicBarcode)) {\n            TraceData memory td = getTraceDataInternal(publicBarcode);\n            if (msg.sender == td.owner) {\n\n                // TODO: ask Beat- why not just change the owner in the TraceData?\n                //why do we need the isTransfered mapping?\n                // in this case, there might be multiple owners. Is this what we want?\n                isTransfered[publicBarcode][newOwner] = true;\n                //emit TransferCompleted(msg.sender, newOwner, publicBarcode);\n            }\n\n            // TODO: ask Beat- why do we want to return true if the tx sender is not the owner? \n            // we didn't really transfer the ownership in this case...\n            return true;\n        }\n        \n        return false;\n    }\n    \n    function addPartner(address addr, \n        string memory partnerid, \n        string memory GLN, \n        string memory name, \n        string memory partnerAddress, \n        string memory proof, \n        string memory typeOfPartner) public returns (bool success){\n    \n        require(isOwner());\n        partners[addr] = Partner(msg.sender, partnerid, GLN, name, partnerAddress, proof, typeOfPartner);\n        //emit addPartnerCompleted(name, proof);\n        return true;\n    }\n        \n    function getPartner(address addr) public view returns (string memory GLN,\n        string memory name,\n        string memory partnerAddress,\n        string memory proof,\n        string memory typeOfPartner) {\n            Partner memory partner = partners[addr];\n            GLN = partner.GLN;\n            name = partner.name;\n            partnerAddress = partner.partnerAddress;\n            proof = partner.proof;\n            typeOfPartner = partner.typeOfPartner;\n        }\n    \n    function getContractOwner() public returns (address owner){\n        return _owner;\n    }\n    \n    function isOwner() public view returns (bool result){\n        return msg.sender == _owner;\n    }\n\n    // returns true if proof is stored\n    function hasAdded(string memory publicBarcode) internal view returns(bool exists) {\n        return traceDatas[publicBarcode].owner != address(0);\n    }\n\n\n    // returns the proof (what is proof?????)\n  function getTraceDataInternal(string memory publicBarcode) internal returns(TraceData memory traceData) {\n    if (hasAdded(publicBarcode)) {\n      return traceDatas[publicBarcode];\n    }\n\n    // proof doesn't exist, throw and terminate transaction\n    revert();\n  }\n    \n    function getTraceData(string memory publicBarcode) public view returns(address owner, \n                                        string memory dateCreate, \n                                        string memory description,\n                                        string memory previousBarcode) {\n        address _owner; \n        string memory _dateCreate; \n        string memory _description; \n        string memory _previousBarcode; \n        string memory _publicBarcode;\n        if (hasAdded(publicBarcode)) {\n            TraceData memory td = getTraceDataInternal(publicBarcode);\n            _owner = td.owner;\n            _dateCreate = td.dateCreate;\n            _description = td.description;\n            _previousBarcode = td.previousBarcode;\n            _publicBarcode = td.publicBarcode;\n        }\n        return (_owner, _dateCreate, _description, _previousBarcode);\n  }\n\n  // returns the dateCreate of traceData\n  function getdateCreate(string memory publicBarcode) public returns(string memory dateCreate) {\n    if (hasAdded(publicBarcode)) {\n      return getTraceDataInternal(publicBarcode).dateCreate;\n    }\n  }\n\n  // returns the previous barcode\n  function getPreviousBarcode(string memory publicBarcode)public view returns(string memory previousBarcode) {\n    if (hasAdded(publicBarcode)) {\n      return getTraceDataInternal(publicBarcode).previousBarcode;\n    }\n  }\n    // return the powner\n  function getOwner(string memory publicBarcode) public view returns(address owner) {\n    if (hasAdded(publicBarcode)) {\n      return getTraceDataInternal(publicBarcode).owner;\n    }\n  }\n\n  function getdDescription(string memory publicBarcode) public view returns(string memory description) {\n    if (hasAdded(publicBarcode)) {\n      return getTraceDataInternal(publicBarcode).description;\n    }\n  }\n}",
  "sourcePath": "/home/huuhien/HuuHien/Agri-Supply-Chain-Management-Graduated-Thesis/my-dapp/contracts/AgriCSM.sol",
  "compiler": {
    "name": "solc",
    "version": "0.4.25+commit.59dbf8f1.Emscripten.clang"
  },
  "schemaVersion": "3.0.6",
  "updatedAt": "2019-05-25T07:38:52.938Z",
  "devdoc": {
    "methods": {}
  },
  "userdoc": {
    "methods": {}
  }
}